{
  "_format": "hh-sol-artifact-1",
  "contractName": "MintableERC20",
  "sourceName": "contracts/MintableERC20.sol",
  "abi": [
    {
      "inputs": [
        {
          "internalType": "address",
          "name": "initialOwner",
          "type": "address"
        }
      ],
      "stateMutability": "nonpayable",
      "type": "constructor"
    },
    {
      "inputs": [
        {
          "internalType": "address",
          "name": "spender",
          "type": "address"
        },
        {
          "internalType": "uint256",
          "name": "allowance",
          "type": "uint256"
        },
        {
          "internalType": "uint256",
          "name": "needed",
          "type": "uint256"
        }
      ],
      "name": "ERC20InsufficientAllowance",
      "type": "error"
    },
    {
      "inputs": [
        {
          "internalType": "address",
          "name": "sender",
          "type": "address"
        },
        {
          "internalType": "uint256",
          "name": "balance",
          "type": "uint256"
        },
        {
          "internalType": "uint256",
          "name": "needed",
          "type": "uint256"
        }
      ],
      "name": "ERC20InsufficientBalance",
      "type": "error"
    },
    {
      "inputs": [
        {
          "internalType": "address",
          "name": "approver",
          "type": "address"
        }
      ],
      "name": "ERC20InvalidApprover",
      "type": "error"
    },
    {
      "inputs": [
        {
          "internalType": "address",
          "name": "receiver",
          "type": "address"
        }
      ],
      "name": "ERC20InvalidReceiver",
      "type": "error"
    },
    {
      "inputs": [
        {
          "internalType": "address",
          "name": "sender",
          "type": "address"
        }
      ],
      "name": "ERC20InvalidSender",
      "type": "error"
    },
    {
      "inputs": [
        {
          "internalType": "address",
          "name": "spender",
          "type": "address"
        }
      ],
      "name": "ERC20InvalidSpender",
      "type": "error"
    },
    {
      "inputs": [],
      "name": "FailedToSendEtherToOwner",
      "type": "error"
    },
    {
      "inputs": [],
      "name": "MintRequestOverMax",
      "type": "error"
    },
    {
      "inputs": [],
      "name": "MustMintOverZero",
      "type": "error"
    },
    {
      "inputs": [
        {
          "internalType": "address",
          "name": "owner",
          "type": "address"
        }
      ],
      "name": "OwnableInvalidOwner",
      "type": "error"
    },
    {
      "inputs": [
        {
          "internalType": "address",
          "name": "account",
          "type": "address"
        }
      ],
      "name": "OwnableUnauthorizedAccount",
      "type": "error"
    },
    {
      "anonymous": false,
      "inputs": [
        {
          "indexed": true,
          "internalType": "address",
          "name": "owner",
          "type": "address"
        },
        {
          "indexed": true,
          "internalType": "address",
          "name": "spender",
          "type": "address"
        },
        {
          "indexed": false,
          "internalType": "uint256",
          "name": "value",
          "type": "uint256"
        }
      ],
      "name": "Approval",
      "type": "event"
    },
    {
      "anonymous": false,
      "inputs": [
        {
          "indexed": true,
          "internalType": "address",
          "name": "previousOwner",
          "type": "address"
        },
        {
          "indexed": true,
          "internalType": "address",
          "name": "newOwner",
          "type": "address"
        }
      ],
      "name": "OwnershipTransferred",
      "type": "event"
    },
    {
      "anonymous": false,
      "inputs": [
        {
          "indexed": false,
          "internalType": "address",
          "name": "minter",
          "type": "address"
        },
        {
          "indexed": false,
          "internalType": "uint256",
          "name": "amount",
          "type": "uint256"
        }
      ],
      "name": "PurchaseOccurred",
      "type": "event"
    },
    {
      "anonymous": false,
      "inputs": [
        {
          "indexed": true,
          "internalType": "address",
          "name": "from",
          "type": "address"
        },
        {
          "indexed": true,
          "internalType": "address",
          "name": "to",
          "type": "address"
        },
        {
          "indexed": false,
          "internalType": "uint256",
          "name": "value",
          "type": "uint256"
        }
      ],
      "name": "Transfer",
      "type": "event"
    },
    {
      "inputs": [],
      "name": "MAX_TO_MINT",
      "outputs": [
        {
          "internalType": "uint256",
          "name": "",
          "type": "uint256"
        }
      ],
      "stateMutability": "view",
      "type": "function"
    },
    {
      "inputs": [
        {
          "internalType": "address",
          "name": "owner",
          "type": "address"
        },
        {
          "internalType": "address",
          "name": "spender",
          "type": "address"
        }
      ],
      "name": "allowance",
      "outputs": [
        {
          "internalType": "uint256",
          "name": "",
          "type": "uint256"
        }
      ],
      "stateMutability": "view",
      "type": "function"
    },
    {
      "inputs": [
        {
          "internalType": "address",
          "name": "spender",
          "type": "address"
        },
        {
          "internalType": "uint256",
          "name": "value",
          "type": "uint256"
        }
      ],
      "name": "approve",
      "outputs": [
        {
          "internalType": "bool",
          "name": "",
          "type": "bool"
        }
      ],
      "stateMutability": "nonpayable",
      "type": "function"
    },
    {
      "inputs": [
        {
          "internalType": "address",
          "name": "account",
          "type": "address"
        }
      ],
      "name": "balanceOf",
      "outputs": [
        {
          "internalType": "uint256",
          "name": "",
          "type": "uint256"
        }
      ],
      "stateMutability": "view",
      "type": "function"
    },
    {
      "inputs": [],
      "name": "decimals",
      "outputs": [
        {
          "internalType": "uint8",
          "name": "",
          "type": "uint8"
        }
      ],
      "stateMutability": "view",
      "type": "function"
    },
    {
      "inputs": [],
      "name": "name",
      "outputs": [
        {
          "internalType": "string",
          "name": "",
          "type": "string"
        }
      ],
      "stateMutability": "view",
      "type": "function"
    },
    {
      "inputs": [],
      "name": "owner",
      "outputs": [
        {
          "internalType": "address",
          "name": "",
          "type": "address"
        }
      ],
      "stateMutability": "view",
      "type": "function"
    },
    {
      "inputs": [],
      "name": "purchaseMint",
      "outputs": [],
      "stateMutability": "payable",
      "type": "function"
    },
    {
      "inputs": [],
      "name": "renounceOwnership",
      "outputs": [],
      "stateMutability": "nonpayable",
      "type": "function"
    },
    {
      "inputs": [],
      "name": "symbol",
      "outputs": [
        {
          "internalType": "string",
          "name": "",
          "type": "string"
        }
      ],
      "stateMutability": "view",
      "type": "function"
    },
    {
      "inputs": [],
      "name": "totalSupply",
      "outputs": [
        {
          "internalType": "uint256",
          "name": "",
          "type": "uint256"
        }
      ],
      "stateMutability": "view",
      "type": "function"
    },
    {
      "inputs": [
        {
          "internalType": "address",
          "name": "to",
          "type": "address"
        },
        {
          "internalType": "uint256",
          "name": "value",
          "type": "uint256"
        }
      ],
      "name": "transfer",
      "outputs": [
        {
          "internalType": "bool",
          "name": "",
          "type": "bool"
        }
      ],
      "stateMutability": "nonpayable",
      "type": "function"
    },
    {
      "inputs": [
        {
          "internalType": "address",
          "name": "from",
          "type": "address"
        },
        {
          "internalType": "address",
          "name": "to",
          "type": "address"
        },
        {
          "internalType": "uint256",
          "name": "value",
          "type": "uint256"
        }
      ],
      "name": "transferFrom",
      "outputs": [
        {
          "internalType": "bool",
          "name": "",
          "type": "bool"
        }
      ],
      "stateMutability": "nonpayable",
      "type": "function"
    },
    {
      "inputs": [
        {
          "internalType": "address",
          "name": "newOwner",
          "type": "address"
        }
      ],
      "name": "transferOwnership",
      "outputs": [],
      "stateMutability": "nonpayable",
      "type": "function"
    }
  ],
  "bytecode": "0x60806040523480156200001157600080fd5b5060405162001aa138038062001aa1833981810160405281019062000037919062000288565b806040518060400160405280600f81526020017f4d696e7461626c652045524320323000000000000000000000000000000000008152506040518060400160405280600481526020017f4d455243000000000000000000000000000000000000000000000000000000008152508160039081620000b5919062000534565b508060049081620000c7919062000534565b505050600073ffffffffffffffffffffffffffffffffffffffff168173ffffffffffffffffffffffffffffffffffffffff16036200013f5760006040517f1e4fbdf70000000000000000000000000000000000000000000000000000000081526004016200013691906200062c565b60405180910390fd5b62000150816200015860201b60201c565b505062000649565b6000600560009054906101000a900473ffffffffffffffffffffffffffffffffffffffff16905081600560006101000a81548173ffffffffffffffffffffffffffffffffffffffff021916908373ffffffffffffffffffffffffffffffffffffffff1602179055508173ffffffffffffffffffffffffffffffffffffffff168173ffffffffffffffffffffffffffffffffffffffff167f8be0079c531659141344cd1fd0a4f28419497f9722a3daafe3b4186f6b6457e060405160405180910390a35050565b600080fd5b600073ffffffffffffffffffffffffffffffffffffffff82169050919050565b6000620002508262000223565b9050919050565b620002628162000243565b81146200026e57600080fd5b50565b600081519050620002828162000257565b92915050565b600060208284031215620002a157620002a06200021e565b5b6000620002b18482850162000271565b91505092915050565b600081519050919050565b7f4e487b7100000000000000000000000000000000000000000000000000000000600052604160045260246000fd5b7f4e487b7100000000000000000000000000000000000000000000000000000000600052602260045260246000fd5b600060028204905060018216806200033c57607f821691505b602082108103620003525762000351620002f4565b5b50919050565b60008190508160005260206000209050919050565b60006020601f8301049050919050565b600082821b905092915050565b600060088302620003bc7fffffffffffffffffffffffffffffffffffffffffffffffffffffffffffffffff826200037d565b620003c886836200037d565b95508019841693508086168417925050509392505050565b6000819050919050565b6000819050919050565b6000620004156200040f6200040984620003e0565b620003ea565b620003e0565b9050919050565b6000819050919050565b6200043183620003f4565b6200044962000440826200041c565b8484546200038a565b825550505050565b600090565b6200046062000451565b6200046d81848462000426565b505050565b5b8181101562000495576200048960008262000456565b60018101905062000473565b5050565b601f821115620004e457620004ae8162000358565b620004b9846200036d565b81016020851015620004c9578190505b620004e1620004d8856200036d565b83018262000472565b50505b505050565b600082821c905092915050565b60006200050960001984600802620004e9565b1980831691505092915050565b6000620005248383620004f6565b9150826002028217905092915050565b6200053f82620002ba565b67ffffffffffffffff8111156200055b576200055a620002c5565b5b62000567825462000323565b6200057482828562000499565b600060209050601f831160018114620005ac576000841562000597578287015190505b620005a3858262000516565b86555062000613565b601f198416620005bc8662000358565b60005b82811015620005e657848901518255600182019150602085019450602081019050620005bf565b8683101562000606578489015162000602601f891682620004f6565b8355505b6001600288020188555050505b505050505050565b620006268162000243565b82525050565b60006020820190506200064360008301846200061b565b92915050565b61144880620006596000396000f3fe6080604052600436106100dd5760003560e01c8063715018a61161007f578063a9059cbb11610059578063a9059cbb14610291578063c66677ac146102ce578063dd62ed3e146102f9578063f2fde38b14610336576100dd565b8063715018a6146102245780638da5cb5b1461023b57806395d89b4114610266576100dd565b806323b872dd116100bb57806323b872dd14610175578063313ce567146101b25780633ac8ab39146101dd57806370a08231146101e7576100dd565b806306fdde03146100e2578063095ea7b31461010d57806318160ddd1461014a575b600080fd5b3480156100ee57600080fd5b506100f761035f565b604051610104919061102d565b60405180910390f35b34801561011957600080fd5b50610134600480360381019061012f91906110e8565b6103f1565b6040516101419190611143565b60405180910390f35b34801561015657600080fd5b5061015f610414565b60405161016c919061116d565b60405180910390f35b34801561018157600080fd5b5061019c60048036038101906101979190611188565b61041e565b6040516101a99190611143565b60405180910390f35b3480156101be57600080fd5b506101c761044d565b6040516101d491906111f7565b60405180910390f35b6101e5610456565b005b3480156101f357600080fd5b5061020e60048036038101906102099190611212565b6105db565b60405161021b919061116d565b60405180910390f35b34801561023057600080fd5b50610239610623565b005b34801561024757600080fd5b50610250610637565b60405161025d919061124e565b60405180910390f35b34801561027257600080fd5b5061027b610661565b604051610288919061102d565b60405180910390f35b34801561029d57600080fd5b506102b860048036038101906102b391906110e8565b6106f3565b6040516102c59190611143565b60405180910390f35b3480156102da57600080fd5b506102e3610716565b6040516102f0919061116d565b60405180910390f35b34801561030557600080fd5b50610320600480360381019061031b9190611269565b610723565b60405161032d919061116d565b60405180910390f35b34801561034257600080fd5b5061035d60048036038101906103589190611212565b6107aa565b005b60606003805461036e906112d8565b80601f016020809104026020016040519081016040528092919081815260200182805461039a906112d8565b80156103e75780601f106103bc576101008083540402835291602001916103e7565b820191906000526020600020905b8154815290600101906020018083116103ca57829003601f168201915b5050505050905090565b6000806103fc610830565b9050610409818585610838565b600191505092915050565b6000600254905090565b600080610429610830565b905061043685828561084a565b6104418585856108de565b60019150509392505050565b60006012905090565b600034905060008103610495576040517fd33fcd9d00000000000000000000000000000000000000000000000000000000815260040160405180910390fd5b683635c9adc5dea000006104a7610414565b826104b29190611338565b11156104ea576040517fc0e58fc900000000000000000000000000000000000000000000000000000000815260040160405180910390fd5b60006104f4610637565b73ffffffffffffffffffffffffffffffffffffffff16346040516105179061139d565b60006040518083038185875af1925050503d8060008114610554576040519150601f19603f3d011682016040523d82523d6000602084013e610559565b606091505b5050905080610594576040517fdc72795500000000000000000000000000000000000000000000000000000000815260040160405180910390fd5b61059e33836109d2565b7fe58e8ce99e24c881da3e8d5b2cc2894e7a79e5b9a4d9ba7c9475fe49201ae40e33836040516105cf9291906113b2565b60405180910390a15050565b60008060008373ffffffffffffffffffffffffffffffffffffffff1673ffffffffffffffffffffffffffffffffffffffff168152602001908152602001600020549050919050565b61062b610a54565b6106356000610adb565b565b6000600560009054906101000a900473ffffffffffffffffffffffffffffffffffffffff16905090565b606060048054610670906112d8565b80601f016020809104026020016040519081016040528092919081815260200182805461069c906112d8565b80156106e95780601f106106be576101008083540402835291602001916106e9565b820191906000526020600020905b8154815290600101906020018083116106cc57829003601f168201915b5050505050905090565b6000806106fe610830565b905061070b8185856108de565b600191505092915050565b683635c9adc5dea0000081565b6000600160008473ffffffffffffffffffffffffffffffffffffffff1673ffffffffffffffffffffffffffffffffffffffff16815260200190815260200160002060008373ffffffffffffffffffffffffffffffffffffffff1673ffffffffffffffffffffffffffffffffffffffff16815260200190815260200160002054905092915050565b6107b2610a54565b600073ffffffffffffffffffffffffffffffffffffffff168173ffffffffffffffffffffffffffffffffffffffff16036108245760006040517f1e4fbdf700000000000000000000000000000000000000000000000000000000815260040161081b919061124e565b60405180910390fd5b61082d81610adb565b50565b600033905090565b6108458383836001610ba1565b505050565b60006108568484610723565b90507fffffffffffffffffffffffffffffffffffffffffffffffffffffffffffffffff81146108d857818110156108c8578281836040517ffb8f41b20000000000000000000000000000000000000000000000000000000081526004016108bf939291906113db565b60405180910390fd5b6108d784848484036000610ba1565b5b50505050565b600073ffffffffffffffffffffffffffffffffffffffff168373ffffffffffffffffffffffffffffffffffffffff16036109505760006040517f96c6fd1e000000000000000000000000000000000000000000000000000000008152600401610947919061124e565b60405180910390fd5b600073ffffffffffffffffffffffffffffffffffffffff168273ffffffffffffffffffffffffffffffffffffffff16036109c25760006040517fec442f050000000000000000000000000000000000000000000000000000000081526004016109b9919061124e565b60405180910390fd5b6109cd838383610d78565b505050565b600073ffffffffffffffffffffffffffffffffffffffff168273ffffffffffffffffffffffffffffffffffffffff1603610a445760006040517fec442f05000000000000000000000000000000000000000000000000000000008152600401610a3b919061124e565b60405180910390fd5b610a5060008383610d78565b5050565b610a5c610830565b73ffffffffffffffffffffffffffffffffffffffff16610a7a610637565b73ffffffffffffffffffffffffffffffffffffffff1614610ad957610a9d610830565b6040517f118cdaa7000000000000000000000000000000000000000000000000000000008152600401610ad0919061124e565b60405180910390fd5b565b6000600560009054906101000a900473ffffffffffffffffffffffffffffffffffffffff16905081600560006101000a81548173ffffffffffffffffffffffffffffffffffffffff021916908373ffffffffffffffffffffffffffffffffffffffff1602179055508173ffffffffffffffffffffffffffffffffffffffff168173ffffffffffffffffffffffffffffffffffffffff167f8be0079c531659141344cd1fd0a4f28419497f9722a3daafe3b4186f6b6457e060405160405180910390a35050565b600073ffffffffffffffffffffffffffffffffffffffff168473ffffffffffffffffffffffffffffffffffffffff1603610c135760006040517fe602df05000000000000000000000000000000000000000000000000000000008152600401610c0a919061124e565b60405180910390fd5b600073ffffffffffffffffffffffffffffffffffffffff168373ffffffffffffffffffffffffffffffffffffffff1603610c855760006040517f94280d62000000000000000000000000000000000000000000000000000000008152600401610c7c919061124e565b60405180910390fd5b81600160008673ffffffffffffffffffffffffffffffffffffffff1673ffffffffffffffffffffffffffffffffffffffff16815260200190815260200160002060008573ffffffffffffffffffffffffffffffffffffffff1673ffffffffffffffffffffffffffffffffffffffff168152602001908152602001600020819055508015610d72578273ffffffffffffffffffffffffffffffffffffffff168473ffffffffffffffffffffffffffffffffffffffff167f8c5be1e5ebec7d5bd14f71427d1e84f3dd0314c0f7b2291e5b200ac8c7c3b92584604051610d69919061116d565b60405180910390a35b50505050565b600073ffffffffffffffffffffffffffffffffffffffff168373ffffffffffffffffffffffffffffffffffffffff1603610dca578060026000828254610dbe9190611338565b92505081905550610e9d565b60008060008573ffffffffffffffffffffffffffffffffffffffff1673ffffffffffffffffffffffffffffffffffffffff16815260200190815260200160002054905081811015610e56578381836040517fe450d38c000000000000000000000000000000000000000000000000000000008152600401610e4d939291906113db565b60405180910390fd5b8181036000808673ffffffffffffffffffffffffffffffffffffffff1673ffffffffffffffffffffffffffffffffffffffff16815260200190815260200160002081905550505b600073ffffffffffffffffffffffffffffffffffffffff168273ffffffffffffffffffffffffffffffffffffffff1603610ee65780600260008282540392505081905550610f33565b806000808473ffffffffffffffffffffffffffffffffffffffff1673ffffffffffffffffffffffffffffffffffffffff168152602001908152602001600020600082825401925050819055505b8173ffffffffffffffffffffffffffffffffffffffff168373ffffffffffffffffffffffffffffffffffffffff167fddf252ad1be2c89b69c2b068fc378daa952ba7f163c4a11628f55a4df523b3ef83604051610f90919061116d565b60405180910390a3505050565b600081519050919050565b600082825260208201905092915050565b60005b83811015610fd7578082015181840152602081019050610fbc565b60008484015250505050565b6000601f19601f8301169050919050565b6000610fff82610f9d565b6110098185610fa8565b9350611019818560208601610fb9565b61102281610fe3565b840191505092915050565b600060208201905081810360008301526110478184610ff4565b905092915050565b600080fd5b600073ffffffffffffffffffffffffffffffffffffffff82169050919050565b600061107f82611054565b9050919050565b61108f81611074565b811461109a57600080fd5b50565b6000813590506110ac81611086565b92915050565b6000819050919050565b6110c5816110b2565b81146110d057600080fd5b50565b6000813590506110e2816110bc565b92915050565b600080604083850312156110ff576110fe61104f565b5b600061110d8582860161109d565b925050602061111e858286016110d3565b9150509250929050565b60008115159050919050565b61113d81611128565b82525050565b60006020820190506111586000830184611134565b92915050565b611167816110b2565b82525050565b6000602082019050611182600083018461115e565b92915050565b6000806000606084860312156111a1576111a061104f565b5b60006111af8682870161109d565b93505060206111c08682870161109d565b92505060406111d1868287016110d3565b9150509250925092565b600060ff82169050919050565b6111f1816111db565b82525050565b600060208201905061120c60008301846111e8565b92915050565b6000602082840312156112285761122761104f565b5b60006112368482850161109d565b91505092915050565b61124881611074565b82525050565b6000602082019050611263600083018461123f565b92915050565b600080604083850312156112805761127f61104f565b5b600061128e8582860161109d565b925050602061129f8582860161109d565b9150509250929050565b7f4e487b7100000000000000000000000000000000000000000000000000000000600052602260045260246000fd5b600060028204905060018216806112f057607f821691505b602082108103611303576113026112a9565b5b50919050565b7f4e487b7100000000000000000000000000000000000000000000000000000000600052601160045260246000fd5b6000611343826110b2565b915061134e836110b2565b925082820190508082111561136657611365611309565b5b92915050565b600081905092915050565b50565b600061138760008361136c565b915061139282611377565b600082019050919050565b60006113a88261137a565b9150819050919050565b60006040820190506113c7600083018561123f565b6113d4602083018461115e565b9392505050565b60006060820190506113f0600083018661123f565b6113fd602083018561115e565b61140a604083018461115e565b94935050505056fea264697066735822122036a08efaceb821bfb61b4b1ec59d74846825cd845d179597213fc34162e658e664736f6c63430008140033",
  "linkReferences": {},
  "deployedLinkReferences": {}
}